:020000040000FA
:10000000E0012020D5000000D9000000DB00000046
:1000100000000000000000000000000000000000E0
:10002000000000000000000000000000DD000000F3
:100030000000000000000000DF000000E100000000
:1000400069070000E3000000E3000000E300000097
:10005000E300000011020000E3000000E3000000E4
:1000600000000000E3000000E300000000000000CA
:1000700000000000E3000000E3000000CD0F0000DE
:10008000E3000000E3000000690F0000E30000004F
:10009000E3000000E300000000000000000000009A
:1000A000E3000000E300000000000000000000008A
:1000B000E300000000000000E3000000E300000097
:1000C0000348854600F030F800480047E51000007E
:1000D000E001202003480047FEE7FEE7FEE7FEE7D9
:1000E000FEE7FEE7C100000070B50446002903D01A
:1000F00000202022012310E0002801D00020C0436E
:10010000C046C0460DE02546D5408D4205D30D467C
:100110009540641B1D46954040191546521E002D02
:10012000F1DC214670BD00001CB50948009009486B
:10013000019005460126009C05E0E36807CC3343A7
:100140000C3C98471034AC42F7D3FFF7BDFF0000DA
:10015000A8190000C8190000B0B52348234900F0D1
:1001600091F823490B1F1868224A024001204404D9
:1001700012191A600A68204C14400C600404E21D35
:100180001E4D2A600A46083A1568254315607724F3
:1001900024061D68A5430924A4062C191C6002230B
:1001A000CB6003020C681C430C601F24E4020D6842
:1001B000A543C4022C190C60114C216E1943216611
:1001C000236A20210B43236223680B4323601368B7
:1001D000034313600B480C4A02600C480160284836
:1001E00000210170B0BDC046002000403019000061
:1001F00008310040FEFFECFFF8FFE0E080310040F6
:100200002830004004B242408082554000E100E0C6
:1002100004480068C0B2062802D1194801210170C3
:100220007047C046203000401248016802229143C6
:100230000160114981604021C16001681143016082
:10024000012000020D494A6802434A600A680243DD
:100250000A600B480178002908D10178002905D1EE
:100260000178002902D101780029F3D00021017022
:100270007047C04600B24240580020200431004080
:10028000D8002020B0B50A78032313400B4A8458C5
:100290000B4D2540EB18A92424061B198350072277
:1002A00012064B6813401124240205599543EA189D
:1002B0000251001949780161B0BDC046080800002C
:1002C000FCFFFF00811E091F00BFFCD27047000029
:1002D000B0B5536894681C439389234314695569E6
:1002E0001C43D3892B431B0123430C01041909250B
:1002F0006D026351137852781A43BF231A40890064
:100300004018034944589C43A2184250B0BDC0460F
:1003100010110000F0B584B0012422022A4B1968A4
:1003200003929143196049490D686D04FCD5457EDF
:1003300025409E69A64374199C612024045D032511
:100340002C40DE69AE433419DC61204C256805265B
:100350002660466A37681F6276685E6207262E400E
:100360002660C4697F252D02DE69AE436406640CF5
:100370003419DC610768456882680092C6680269C2
:100380000192426902929A69114C14403A07120B89
:100390002D03ADB2AA183243009D2D072D0D154334
:1003A000019A1543029A1543007E2843094A0240E8
:1003B000101998611868039A10431860086880053E
:1003C000FCD504B0F0BDC04608010B40001340400E
:1003D0008D00F0FF72FF0F00F0B5124B1D46083D77
:1003E0002E680124A6432E600326360330401F6882
:1003F000B743381818601868FF26B043C9B24018D0
:10040000186028682043286018682107002A06D051
:10041000084318600D480168C905FCD5F0BD884344
:100420001860F0BD10010B4007498860074802685A
:100430009202FCD5012212040B6813430B60016881
:10044000C906FCD57047C04604010B4004020B40AE
:10045000F0B582B07B4E844A8518894A8218019291
:100460003B4A83180A794C793A4F002C26D0202A2F
:1004700004D00524E401002A03D003E0364C002A0E
:1004800000D188249E683E4026439E60DE683E4040
:100490002643DE60AC686D4E3440AC60EC6834409E
:1004A000EC600024019EB460F4608F24E4439E69F4
:1004B00026409E61DE692640DE61624E80198E799B
:1004C0000C68202A009208D0191D002A15D1641E3C
:1004D00044601A683A40882415E0611E416019683A
:1004E00039401D4A11431960596839401143596018
:1004F00001214C07194F014607E0620842601A6863
:100500003A400524E40122431A600A683A40224333
:100510000A6029684D4A1140296069681140696084
:100520000021019A116051608F21C9431A690A4064
:100530001A615A690A405A6100990E43BD2131403F
:100540000268074B1340C918891C016002B0F0BD56
:100550007018000024493E0001040000FFFFFFCF97
:100560004000FFCF70B5374A82184B6853603E4B4E
:10057000C3180878222857D8840001A52C59A7460B
:100580001F060000290600001F06000029060000C3
:10059000290600002906000029060000290600009F
:1005A000290600002906000029060000290600008F
:1005B000290600002906000029060000290600007F
:1005C0000D060000290600000D06000029060000A7
:1005D000290600002906000029060000290600005F
:1005E000290600002906000029060000290600004F
:1005F000290600002906000029060000290600003F
:100600000D060000290600000D0600000324240743
:100610001568A543012464072C19146004E0032421
:1006200024071568A54315600C69D460CC68064D95
:1006300025401C68054E264074191C60097A014348
:10064000116070BD04180000777702008888FDFFF4
:1006500010B507239B04194092008018024A845861
:100660009C436118815010BD3018000010B5029CE9
:10067000A400001911431943014A815010BDC0461E
:100680005018000092008018014A81507047C046FF
:100690001018000010B50122120383180C789C601A
:1006A0004B7883508978014A815010BD0C110000AD
:1006B000B0B51122120283580124A34383508B78D2
:1006C0000C881C438B882343094C1C408358094DDC
:1006D0001D402B1983508B79CC791C43097A214317
:1006E0007E231940801842689A4351184160B0BD7A
:1006F00018670000E798FDFF10B501221203831868
:100700000C789C604978815010BD0000074A801821
:100710000268120608D50268120605D5026812069C
:1007200002D502681206F3D48161704708110000F7
:1007300080B500F091FB80BDB0B5002806D004461E
:10074000034D2846FFF7BEFD641EFAD1B0BDC0467A
:100750008038010010B5002805D004465020FFF76E
:10076000B1FD641EFAD110BD10B50648006801281D
:1007700007D1054C2068000603D000F031F80120B5
:10078000A06210BD001140402010084010B54E4836
:1007900041688900104A114B8B50416989008B5088
:1007A000416A89008B50416B89008B5040240021A5
:1007B0000153446CA400A35001860184817401821A
:1007C0008170018002464032917002463032917051
:1007D0002030817010BDC0460480424081000E0070
:1007E00070B50020384906E0002B03D003231374B2
:1007F0000023537420300A1894682723DB01E4583F
:100800000D5C032D21D8D6683440C0467D442D7937
:100810006D00AF440114060B002C16D101240C52BC
:1008200013E0002C11D003240C520EE0002C0AD04F
:100830005478641C5470E4B2022C02D205E0002CFF
:1008400026D0002400E002240C5440283BD09469B8
:10085000E358147C032CCDD8D5692B407C442479F3
:100860006400A744020F0106BEE7002BC2D101239A
:10087000BDE7002B17D0537C5B1C5374DBB2022BFB
:10088000B8D301E0002B12D0002313742030B2E75C
:100890005478641C5470E4B2022CD6D302240C5455
:1008A00001249470D1E7022313742030A3E7537C12
:1008B0005B1C5374DBB2022B9CD302231374012301
:1008C0009374203097E770BD040020200148402138
:1008D00001607047B0320A400548812101604160E3
:1008E0008160072080010349086008637047C046A3
:1008F0005C804240A0320A40B0B5B02000F0FEF962
:10090000102000F0FBF90025284600F0F7F900243C
:10091000204600F021FA681C45B2002DF7D5B12021
:1009200000F0ECF9102000F0E9F9204600F0E6F9BB
:100930000025284600F010FA601C44B2002CF7D5C0
:10094000B22000F0DBF9102000F0D8F9284600F0C2
:10095000D5F90024204600F0FFF9681C45B2002DAF
:10096000F7D5B32000F0CAF9102000F0C7F92046EF
:1009700000F0C4F90025284600F0EEF9601C44B2EE
:10098000002CF7D5B42000F0B9F9102000F0B6F92A
:10099000284600F0B3F90024204600F0DDF9681C79
:1009A00045B2002DF7D5B52000F0A8F9102000F0D1
:1009B000A5F9204600F0A2F90025284600F0CCF960
:1009C000601C44B2002CF7D5B62000F097F9102037
:1009D00000F094F9284600F091F90024204600F038
:1009E000BBF9681C45B2002DF7D5B72000F086F999
:1009F000102000F083F9204600F080F9002000F07C
:100A0000ABF9601C44B2002CF8D5B0BDF0B583B092
:100A1000029040B2E74D2E4610360028304600DAEC
:100A2000284608210191016001242046FFF792FE2B
:100A300010272F602046FFF78DFE2F612046FFF71D
:100A400089FE02984006304600D52846019901608B
:100A50002046FFF77FFE2F602046FFF77BFE2F61C9
:100A60002046FFF777FE02988006304600D52846DC
:100A7000019901602046FFF76DFE2F602046FFF7C9
:100A800069FE2F612046FFF765FE0298C0063046DA
:100A900000D52846019901602046FFF75BFE2F60D4
:100AA0002046FFF757FE2F612046FFF753FE0298BE
:100AB0000007304600D52846019901602046FFF71F
:100AC00049FE2F602046FFF745FE2F612046FFF7C5
:100AD00041FE02984007304600D528460199016042
:100AE0002046FFF737FE2F602046FFF733FE2F61C9
:100AF0002046FFF72FFE02988007304600D5284693
:100B0000019901602046FFF725FE2F602046FFF780
:100B100021FE2F612046FFF71DFE0298C00700D07E
:100B20002E46019830602046FFF714FE2F602046C5
:100B3000FFF710FE2F612046FFF70CFE2F602046C6
:100B4000FFF708FE2F612046FFF704FE03B0F0BD5B
:100B500070B52D48812404604460964E18203061A1
:100B600030641020306001252846FFF7F3FD08208F
:100B700030602846FFF7EEFDAE2000F0BFF8D5202C
:100B800000F0BCF8802000F0B9F8A82000F0B6F81A
:100B90003F2000F0B3F8D32000F0B0F8002000F0C0
:100BA000ADF8402000F0AAF8A12000F0A7F8C82076
:100BB00000F0A4F8DA2000F0A1F8122000F09EF86E
:100BC000204600F09BF8CF2000F098F8D92000F0E4
:100BD00095F8F12000F092F8DB2000F08FF830203B
:100BE00000F08CF8A42000F089F8A62000F086F828
:100BF0008D2000F083F8142000F080F8AF2000F082
:100C00007DF8FFF779FE70BD20804240F0B583B0DB
:100C100016460C46400002907E30B02101910843F8
:100C2000C0B200F06BF8E700083FF8B204091034D6
:100C3000204600F063F808253D40284600F05EF8A5
:100C4000300121494618214FF05D00F085F8F61972
:100C5000707800F081F8B07800F07EF8F07800F05D
:100C60007BF8307900F078F8707900F075F8B07999
:100C700000F072F8F07900F06FF80298401E0199C8
:100C80000843C0B200F03AF8204600F037F8284692
:100C900000F034F8307A00F05FF8707A00F05CF819
:100CA000B07A00F059F8F07A00F056F8307B00F096
:100CB00053F8707B00F050F8B07B00F04DF8F07BFB
:100CC00000F04AF803B0F0BD4013000000FEFFFF43
:100CD000F0B581B00646107800280DD014460D46B8
:100CE00000277919C9B2C2B23046FFF78FFF7F1CC7
:100CF000F8B2205C0028F4D101B0F0BDF0B581B0AD
:100D000000902C4E0827376001242046FFF722FD73
:100D1000102535602046FFF71DFD37612046FFF79F
:100D200019FD35612046FFF715FD7820FFF76EFEAF
:100D30000020FFF76BFE0098FFF768FE3761204642
:100D4000FFF708FD35602046FFF704FD37602046B9
:100D5000FFF700FD01B0F0BDF0B581B00090154E79
:100D60000827376001242046FFF7F4FC1025356082
:100D70002046FFF7EFFC37612046FFF7EBFC3561BB
:100D80002046FFF7E7FC7820FFF740FE4020FFF702
:100D90003DFE0098FFF73AFE37612046FFF7DAFC88
:100DA00035602046FFF7D6FC37602046FFF7D2FCBF
:100DB00001B0F0BD90120A4080B564210A1A7D206E
:100DC000C0005043FFF790F901461D480022FFF78D
:100DD00059FC80BDF0B581B017488421016001261F
:100DE000300316490860164C16492046FFF752FC9E
:100DF00015492046FFF72CFB144F38681449014071
:100E0000396000250095204629462A462B46FFF7E3
:100E10002DFC204629462A46FFF71AFC7D2081003A
:100E200020462A46FFF72EFC0A488660066038688E
:100E30003043386001B0F0BD88804240D0120A4093
:100E400000400840501900005419000004580840A0
:100E50007F00FFFF0051084080B503480021034A8E
:100E6000FFF736FA80BDC04600A0424038190000A6
:100E7000F0B581B00D480E4941600E4A51600E4BED
:100E800059600E4C61600E4D69600E4E71600E4FE0
:100E900079600E490160116019602160296031603C
:100EA00039605020FFF70EFA01B0F0BD00080A408B
:100EB000030000B100280A400008864000480840AE
:100EC000000808400088104000280040010000266B
:100ED00070B51F480024046044601E4804600F2061
:100EE00000021D4D29688143012250020818286024
:100EF0000320C1432B1F1E680E401E60696891438A
:100F0000696011026B688B436B6000036421FFF71B
:100F100063FA1248FFF7FEF92868102101432020E8
:100F2000814329602046FFF77FFA0D480D490A6882
:100F3000024082420BD00A680240824207D00A680F
:100F40000240824203D00A6802408242EFD170BD63
:100F50002880424008030B4004010B405C1900004C
:100F6000000B200004020B4080B504480068C0B2AA
:100F7000012801D1FFF7AAFC80BDC04620108640A1
:100F800010B50C4C0C492046FFF784FB0B4920465A
:100F9000FFF7E8FA0A480168012211430160094895
:100FA00002609004494908600748016811430160E4
:100FB00010BDC0460000864084190000881900005A
:100FC00028108640081186400418864005480068AD
:100FD000C0B20B2805D104484168044A1170C9B257
:100FE000016070472090104020911040D9002020CF
:100FF00010B522488221016021494160384C2149C5
:101000002046FFF779FB20492046FFF751FB0320DC
:10101000C1031E4802688A43026001691C4A0A40F3
:101020001532026141692D220A4312218A4342612D
:10103000426801210A4043688B439A1842608A0241
:10104000144B1C6814431C604A0403681343036078
:10105000C2682023134350229343C360C268022313
:10106000134305229343C36002680A430260C80326
:10107000094908601549086010BDC0460480424017
:10108000820004009C1900009E190000009110408D
:101090000000FFFF2890104080E200E00748084968
:1010A000016008480121016007480268802313435A
:1010B0007F22934303600548016070470011084098
:1010C000610001C92810084000E400E000E100E0F0
:1010D00010B50446C1B20248FFF718FB204610BD08
:1010E00000801040FFF7C4FEFFF7F2FEFFF7F4FBAD
:1010F000FFF74CFBFFF76EFEFFF742FFFFF778FFAD
:10110000FFF72AF8FFF714FBFFF7C8FFFFF720FDF2
:10111000C820FFF711FB01200EA20146FFF7D8FD02
:101120004620FFF749FE134C13A50DA000F0F8F878
:10113000FFF77AF8002627463A882846314600F01D
:1011400021F8BF1C761C402EF6D17D208000FFF7D1
:10115000F3FAEAE748656C6C6F20576F726C6400B5
:10116000537461727420414420436F6E76657274CB
:10117000210D00005800202025642069732025647B
:101180000D0A00000FB410B503A9044B044A0298DD
:1011900000F01EF810BC08BC04B01847D1100000C5
:1011A000000020200000000002E008C8121F08C153
:1011B000002AFAD1704700007047000000000000CC
:1011C000002001E001C1121F002AFBD1704700007E
:1011D000FFB58DB00446002506E025280AD0109AF8
:1011E0000F999047641C6D1C20780028F5D1284683
:1011F00011B0F0BD00270121484A009700E00743E5
:10120000641C23780846203B98401042F7D1207890
:101210002E2817D1042007436078641C2A280CD19B
:101220000E98641C02C800910E900BE000990A22EF
:10123000514330394018641C009020780146303901
:101240000929F3D920780028D1D0642808D069284A
:1012500006D075281ED0109A0F9990476D1C5BE040
:101260000A200E99019001C90E91002802DA40422D
:101270002D2102E0390504D52B216A461172012186
:1012800003E0F90704D02021F7E70BAE0B910DE046
:101290000021FAE70A200E99019001C90E91F7E7A3
:1012A0000199FEF721FF3031761E31700028F7D109
:1012B00003A8801B20300190780701D5009801E039
:1012C000012000900199884201DD401A00E00020D1
:1012D0000027009006E002A8109AC05D0F99904781
:1012E0006D1C7F1C0B988742F5DB04E0109A3020C0
:1012F0000F9990476D1C0099481E00900029F5DC5D
:1013000005E03078109A761C0F9990476D1C019972
:10131000481E01900029F4DC641C65E709280100DF
:1013200010B5044601E0FFF7D3FE2078641C0349A2
:101330000028F8D10A20FFF7CBFE10BD00002020C6
:10134000000000000000000000000000000000009D
:10135000000000F800000000000000333000000032
:1013600000100C06100C0600000000000000000039
:1013700040C07840C0784000043F04043F040400AB
:10138000007088FC08300000001820FF211E0000BB
:10139000F008F000E018000000211C031E211E00D0
:1013A00000F00888700000001E2123241927211056
:1013B00010160E00000000000000000000000000F9
:1013C000000000E0180402000000000718204000A0
:1013D00000020418E0000000004020180700000090
:1013E000404080F0804040000202010F01020200F4
:1013F000000000F0000000000101011F01010100D8
:10140000000000000000000080B07000000000003C
:1014100000000000000000000001010101010101C5
:10142000000000000000000000303000000000005C
:101430000000000080601804006018060100000031
:1014400000E010080810E000000F102020100F002E
:10145000001010F8000000000020203F20200000B5
:10146000007008080888700000302824222130000D
:1014700000300888884830000018202020110E0015
:101480000000C02010F8000000070424243F2400BE
:1014900000F80888880808000019212020110E0093
:1014A00000E0108888180000000F112020110E00A5
:1014B00000380808C83808000000003F000000009D
:1014C0000070880808887000001C222121221C005E
:1014D00000E010080810E0000000312222110F0087
:1014E000000000C0C000000000000030300000001C
:1014F000000000800000000000008060000000008C
:1015000000008040201008000001020408102000A4
:1015100040404040404040000404040404040400EF
:101520000008102040800000002010080402010084
:10153000007048080808F000000000303601000084
:10154000C030C828E810E0000718272423140B0037
:101550000000C038E0000000203C230202273820B1
:1015600008F8888888700000203F202020110E0095
:10157000C03008080808380007182020201008008C
:1015800008F808080810E000203F202020100F0075
:1015900008F88888E8081000203F20202320180041
:1015A00008F88888E8081000203F200003000000A9
:1015B000C03008080838000007182020221E02004A
:1015C00008F808000008F808203F210101213F2009
:1015D000000808F8080800000020203F2020000034
:1015E00000000808F8080800C08080807F00000024
:1015F00008F888C028180800203F2001263820005D
:1016000008F8080000000000203F202020203000C3
:1016100008F8F800F8F80800203F003F003F2000DD
:1016200008F830C00008F808203F200007183F00E5
:10163000E01008080810E0000F10202020100F0014
:1016400008F808080808F000203F21010101000007
:10165000E01008080810E0000F18242438504F004C
:1016600008F8888888887000203F2000030C30200C
:1016700000708808080838000038202121221C004A
:10168000180808F8080818000000203F2000000093
:1016900008F808000008F808001F202020201F007C
:1016A0000878880000C83808000007380E010000DC
:1016B000F80800F80008F800033C0700073C0300A6
:1016C000081868808068180820302C03032C30200C
:1016D0000838C800C83808000000203F200000007B
:1016E00010080808C83808002038262120201800D3
:1016F000000000FE020202000000007F40404000A7
:10170000000C30C000000000000000010638C000DE
:1017100000020202FE000000004040407F00000086
:1017200000000402020204000000000000000000AB
:1017300000000000000000008080808080808080A9
:101740000002020400000000000000000000000091
:1017500000008080808000000019242222223F2087
:1017600008F8008080000000003F112020110E00CA
:101770000000008080800000000E11202020110059
:10178000000000808088F800000E112020103F200B
:101790000000808080800000001F2222222213008F
:1017A000008080F0888888180020203F20200000DA
:1017B0000000808080808000006B9494949360008F
:1017C00008F8008080800000203F210000203F209A
:1017D00000809898000000000020203F202000009A
:1017E000000000809898000000C08080807F00008A
:1017F00008F8000080808000203F24022D30200067
:10180000000808F8000000000020203F2020000011
:101810008080808080808000203F20003F20003F2B
:101820008080008080800000203F210000203F2039
:101830000000808080800000001F202020201F00EA
:10184000808000808000000080FFA12020110E0019
:101850000000008080808000000E112020A0FF800A
:10186000808080008080800020203F2120000100B7
:10187000000080808080800000332424242419000C
:10188000008080E0808000000000001F2020000019
:101890008080000000808000001F202020103F205A
:1018A000808080000080808000010E3008060100EA
:1018B00080800080008080800F300C030C300F008F
:1018C00000808000808080000020312E0E312000BA
:1018D000808080000080808080818E7018060100EA
:1018E00000808080808080000021302C2221300008
:1018F00000000000807C020200000000003F404029
:1019000000000000FF00000000000000FF000000D9
:101910000002027C800000000040403F0000000008
:1019200000060101020204040000000000000000A3
:101930000105000000000000180000000000002069
:101940000000000000010001000000000000030092
:1019500008076300E8030000000000000100000029
:101960000000000000000000000000000000000077
:101970001000000000010000030000000000000053
:101980003400C44108076300020000004FC3000098
:10199000000000000000000000000000080000003F
:1019A0001800000000300000C819000000002020CE
:1019B00058000000A8110000201A00005800202044
:1019C00088010000C01100000000000000000000BD
:1019D0001900000000200A40000200000000000082
:1019E0001E00000000200A4000400000000000002F
:1019F0000D00000000000A40800000000000000010
:101A00000200000000000A4000000010000000007A
:101A10000500000000000A400000008000000000F7
:04000005000000C136
:00000001FF
