:020000040000FA
:1000000058012020D5000000D9000000DB000000CE
:1000100000000000000000000000000000000000E0
:10002000000000000000000000000000DD000000F3
:100030000000000000000000DF000000E100000000
:10004000F9030000E3000000E3000000E30000000B
:10005000E3000000E3000000E3000000E300000014
:1000600000000000E3000000E300000000000000CA
:1000700000000000E3000000E3000000710B00003E
:10008000E3000000E30000000D0B0000E3000000AF
:10009000E3000000E300000000000000000000009A
:1000A000E3000000E300000000000000000000008A
:1000B000E300000000000000E3000000E300000097
:1000C0000348854600F010F800480047750C000012
:1000D0005801202003480047FEE7FEE7FEE7FEE761
:1000E000FEE7FEE7C10000001CB509480090094882
:1000F000019005460126009C05E0E36807CC3343E8
:100100000C3C98471034AC42F7D3FFF7DDFF0000FA
:100110002C1300004C130000811E091F00BFFCD2ED
:1001200070470000F0B584B0012422022A4B196800
:1001300003929143196049490D686D04FCD5457ED1
:1001400025409E69A64374199C612024045D032503
:100150002C40DE69AE433419DC61204C256805264D
:100160002660466A37681F6276685E6207262E4000
:100170002660C4697F252D02DE69AE436406640CE7
:100180003419DC610768456882680092C6680269B4
:100190000192426902929A69114C14403A07120B7B
:1001A0002D03ADB2AA183243009D2D072D0D154326
:1001B000019A1543029A1543007E2843094A0240DA
:1001C000101998611868039A104318600868800530
:1001D000FCD504B0F0BDC04608010B400013404000
:1001E0008D00F0FF72FF0F00F0B5124B1D46083D69
:1001F0002E680124A6432E600326360330401F6874
:10020000B743381818601868FF26B043C9B24018C1
:10021000186028682043286018682107002A06D043
:10022000084318600D480168C905FCD5F0BD884336
:100230001860F0BD10010B4007498860074802684C
:100240009202FCD5012212040B6813430B60016873
:10025000C906FCD57047C04604010B4004020B40A0
:1002600070B5374A82184B685360364BC31808780C
:10027000222857D8840001A52C59A7461B0300004B
:10028000250300001B0300002503000025030000D8
:1002900025030000250300002503000025030000BE
:1002A00025030000250300002503000025030000AE
:1002B00025030000250300002503000009030000BA
:1002C00025030000090300002503000025030000AA
:1002D000250300002503000025030000250300007E
:1002E000250300002503000025030000250300006E
:1002F000250300002503000025030000090300007A
:100300002503000009030000032424071568A54302
:10031000012464072C19146004E0032424071568E1
:10032000A54315600C69D460CC68074D25401C6856
:10033000064E264074191C60097A0143116070BD95
:100340000418000030180000777702008888FDFF4D
:1003500010B50122120383180C789C604B788350EF
:100360008978014A815010BD0C110000B0B51122EE
:10037000120283580124A34383508B780C881C43BA
:100380008B882343094C1C408358094D1D402B1971
:1003900083508B79CC791C43097A21437E23194001
:1003A000801842689A4351184160B0BD1867000038
:1003B000E798FDFF10B50122120383180C789C60AA
:1003C0004978815010BD0000B0B5002806D0044621
:1003D000034D2846FFF7A0FE641EFAD1B0BDC0460B
:1003E0008038010010B5002805D004465020FFF7E2
:1003F00093FE641EFAD110BD10B5064800680128AE
:1004000007D1054C2068000603D000F031F8012028
:10041000A06210BD001140402010084010B54E48A9
:1004200041688900104A114B8B50416989008B50FB
:10043000416A89008B50416B89008B504024002118
:100440000153446CA400A35001860184817401828D
:1004500081700180024640329170024630329170C4
:100460002030817010BDC0460480424081000E00E3
:1004700070B50020384906E0002B03D00323137425
:100480000023537420300A1894682723DB01E458B2
:100490000D5C032D21D8D6683440C0467D442D79AB
:1004A0006D00AF440114060B002C16D101240C5230
:1004B00013E0002C11D003240C520EE0002C0AD0C3
:1004C0005478641C5470E4B2022C02D205E0002C73
:1004D00026D0002400E002240C5440283BD094692C
:1004E000E358147C032CCDD8D5692B407C44247967
:1004F0006400A744020F0106BEE7002BC2D101230E
:10050000BDE7002B17D0537C5B1C5374DBB2022B6E
:10051000B8D301E0002B12D0002313742030B2E7CF
:100520005478641C5470E4B2022CD6D302240C54C8
:1005300001249470D1E7022313742030A3E7537C85
:100540005B1C5374DBB2022B9CD302231374012374
:100550009374203097E770BD0000202001484021AF
:100560000160704790320A400148402101607047A5
:10057000B0320A4005488121016041608160072056
:1005800080010349086008637047C0465C804240B0
:10059000A0320A40B0B5B02000F0FEF9102000F003
:1005A000FBF90025284600F0F7F90024204600F06A
:1005B00021FA681C45B2002DF7D5B12000F0ECF906
:1005C000102000F0E9F9204600F0E6F90025284661
:1005D00000F010FA601C44B2002CF7D5B22000F0F5
:1005E000DBF9102000F0D8F9284600F0D5F90024F6
:1005F000204600F0FFF9681C45B2002DF7D5B32066
:1006000000F0CAF9102000F0C7F9204600F0C4F944
:100610000025284600F0EEF9601C44B2002CF7D506
:10062000B42000F0B9F9102000F0B6F9284600F027
:10063000B3F90024204600F0DDF9681C45B2002D16
:10064000F7D5B52000F0A8F9102000F0A5F9204654
:1006500000F0A2F90025284600F0CCF9601C44B255
:10066000002CF7D5B62000F097F9102000F094F98F
:10067000284600F091F90024204600F0BBF9681CE0
:1006800045B2002DF7D5B72000F086F9102000F014
:1006900083F9204600F080F9002000F0ABF9601CDF
:1006A00044B2002CF8D5B0BDF0B583B0029040B292
:1006B000E74D2E4610360028304600DA284608213D
:1006C0000191016001242046FFF78CFE10272F6066
:1006D0002046FFF787FE2F612046FFF783FE029832
:1006E0004006304600D52846019901602046FFF7B4
:1006F00079FE2F602046FFF775FE2F612046FFF739
:1007000071FE02988006304600D5284601990160A6
:100710002046FFF767FE2F602046FFF763FE2F613C
:100720002046FFF75FFE0298C006304600D52846F7
:10073000019901602046FFF755FE2F602046FFF724
:1007400051FE2F612046FFF74DFE0298000730460C
:1007500000D52846019901602046FFF743FE2F602F
:100760002046FFF73FFE2F612046FFF73BFE029831
:100770004007304600D52846019901602046FFF722
:1007800031FE2F602046FFF72DFE2F612046FFF738
:1007900029FE02988007304600D52846019901605D
:1007A0002046FFF71FFE2F602046FFF71BFE2F613C
:1007B0002046FFF717FE0298C00700D02E4601988A
:1007C00030602046FFF70EFE2F602046FFF70AFE3E
:1007D0002F612046FFF706FE2F602046FFF702FE3E
:1007E0002F612046FFF7FEFD03B0F0BD70B52D4828
:1007F000812404604460964E1820306130641020DB
:10080000306001252846FFF7EDFD082030602846BE
:10081000FFF7E8FDAE2000F0BFF8D52000F0BCF8EF
:10082000802000F0B9F8A82000F0B6F83F2000F0D2
:10083000B3F8D32000F0B0F8002000F0ADF840206D
:1008400000F0AAF8A12000F0A7F8C82000F0A4F852
:10085000DA2000F0A1F8122000F09EF8204600F007
:100860009BF8CF2000F098F8D92000F095F8F120FF
:1008700000F092F8DB2000F08FF8302000F08CF8C8
:10088000A42000F089F8A62000F086F88D2000F062
:1008900083F8142000F080F8AF2000F07DF8FFF717
:1008A00079FE70BD20804240F0B583B016460C46FC
:1008B000400002907E30B02101910843C0B200F0A8
:1008C0006BF8E700083FF8B204091034204600F046
:1008D00063F808253D40284600F05EF830012149C4
:1008E0004618214FF05D00F085F8F619707800F099
:1008F00081F8B07800F07EF8F07800F07BF830797D
:1009000000F078F8707900F075F8B07900F072F8BE
:10091000F07900F06FF80298401E01990843C0B2C8
:1009200000F03AF8204600F037F8284600F034F896
:10093000307A00F05FF8707A00F05CF8B07A00F07E
:1009400059F8F07A00F056F8307B00F053F8707BDD
:1009500000F050F8B07B00F04DF8F07B00F04AF862
:1009600003B0F0BDEE0C000000FEFFFFF0B581B05B
:100970000646107800280DD014460D460027791938
:10098000C9B2C2B23046FFF78FFF7F1CF8B2205CBD
:100990000028F4D101B0F0BDF0B581B000902C4E2C
:1009A0000827376001242046FFF71CFD102535601D
:1009B0002046FFF717FD37612046FFF713FD35612D
:1009C0002046FFF70FFD7820FFF76EFE0020FFF7AF
:1009D0006BFE0098FFF768FE37612046FFF702FDC7
:1009E00035602046FFF7FEFC37602046FFF7FAFC33
:1009F00001B0F0BDF0B581B00090154E082737600A
:100A000001242046FFF7EEFC102535602046FFF755
:100A1000E9FC37612046FFF7E5FC35612046FFF72A
:100A2000E1FC7820FFF740FE4020FFF73DFE0098F4
:100A3000FFF73AFE37612046FFF7D4FC35602046C9
:100A4000FFF7D0FC37602046FFF7CCFC01B0F0BDCB
:100A500090120A4010B5094826494160084A516081
:100A6000084B5960084C61602349016011601960AE
:100A700021605020FFF750FB10BDC04600280A40FF
:100A8000000886400008084000881040B0B51848AB
:100A900018494160184901605020FFF73DFB174895
:100AA000002404604460164804600320C143154DCF
:100AB0002A46083A13680B401360296801229143C3
:100AC000296011022A688A432A60000321462246CF
:100AD000FFF78AFB0C48FFF725FB281F016810224F
:100AE0000A4320218A4302602046FFF7A5FBB0BDE0
:100AF00000080A40030000B101000026288042409F
:100B000008030B4008010B40E012000080B50448C8
:100B10000068C0B2012801D1FFF726FD80BDC046A4
:100B20002010864010B50C4C0C492046FFF710FCF5
:100B30000B492046FFF794FB0A4801680122114344
:100B4000016009480260900449490860074801684B
:100B50001143016010BDC04600008640081300002C
:100B60000C130000281086400811864004188640A7
:100B700005480068C0B20B2805D152484168034AB5
:100B80001170C9B2016070472090104050002020C1
:100B900010B522488221016021494160214C22493F
:100BA0002046FFF707FC21492046FFF7DFFB032023
:100BB000C1031F4802688A43026001691D4A0A4056
:100BC0001532026141692D220A4312218A43426192
:100BD000426801210A4043688B439A1842608A02A6
:100BE000154B1C6814431C604A04036813430360DC
:100BF000C2682023134350229343C360C268022378
:100C0000134305229343C36002680A430260C8038A
:100C10000A4908601649086010BDC0460480424079
:100C20008200040000801040201300002213000006
:100C3000009110400000FFFF2890104080E200E08B
:100C40000748084901600848012101600748026817
:100C5000802313437F22934303600548016070475C
:100C600000110840610001C92810084000E400E0BC
:100C700000E100E0FFF70AFFFFF7ECFEFFF77AFC68
:100C8000FFF7CCFBFFF7DCFFFFF7B0FDFFF780FFBE
:100C9000FFF748FF7D2084002046FFF795FB0120E9
:100CA00006A20146FFF762FEFFF758FC054DA5209E
:100CB00028602046FFF788FBF9E7C04648656C6C62
:100CC0006F0000002091104002E008C8121F08C108
:100CD000002AFAD1704700007047000000000000B1
:100CE000002001E001C1121F002AFBD17047000063
:100CF00000000000000000000000000000000000F4
:100D000000F8000000000000003330000000001078
:100D10000C06100C0600000000000000000040C09F
:100D20007840C0784000043F04043F040400007091
:100D300088FC08300000001820FF211E0000F00889
:100D4000F000E018000000211C031E211E0000F02E
:100D50000888700000001E21232419272110101676
:100D60000E00000000000000000000000000000075
:100D700000E01804020000000007182040000002F4
:100D80000418E00000000040201807000000404068
:100D900080F0804040000202010F010202000000CA
:100DA00000F0000000000101011F0101010000002E
:100DB00000000000000080B0700000000000000093
:100DC000000000000000000101010101010100001C
:100DD00000000000000000303000000000000000B3
:100DE000000080601804006018060100000000E0A8
:100DF00010080810E000000F102020100F00001055
:100E000010F8000000000020203F202000000070AB
:100E100008080888700000302824222130000030A3
:100E20000888884830000018202020110E0000009B
:100E3000C02010F8000000070424243F240000F81C
:100E40000888880808000019212020110E0000E001
:100E5000108888180000000F112020110E000038A3
:100E60000808C83808000000003F000000000070BB
:100E7000880808887000001C222121221C0000E044
:100E800010080810E0000000312222110F000000BD
:100E900000C0C00000000000003030000000000072
:100EA00000800000000000008060000000000000E2
:100EB000804020100800000102040810200040407B
:100EC00040404040400004040404040404000008BE
:100ED0001020408000000020100804020100007073
:100EE00048080808F0000000003036010000C0305B
:100EF000C828E810E0000718272423140B0000007E
:100F0000C038E0000000203C23020227382008F807
:100F1000888888700000203F202020110E00C030FB
:100F2000080808083800071820202010080008F8D2
:100F300008080810E000203F202020100F0008F8CB
:100F40008888E8081000203F20202320180008F897
:100F50008888E8081000203F200003000000C0300F
:100F600008080838000007182020221E020008F890
:100F700008000008F808203F210101213F20000857
:100F800008F8080800000020203F20200000000092
:100F90000808F8080800C08080807F00000008F87A
:100FA00088C028180800203F20012638200008F8B3
:100FB000080000000000203F20202020300008F81A
:100FC000F800F8F80800203F003F003F200008F834
:100FD00030C00008F808203F200007183F00E0104C
:100FE00008080810E0000F10202020100F0008F85B
:100FF00008080808F000203F210101010000E0106E
:1010000008080810E0000F18242438504F0008F892
:10101000888888887000203F2000030C30200070F2
:101020008808080838000038202121221C001808F0
:1010300008F8080818000000203F2000000008F809
:1010400008000008F808001F202020201F00087852
:10105000880000C83808000007380E010000F808B2
:1010600000F80008F800033C0700073C03000818DC
:1010700068808068180820302C03032C3020083842
:10108000C800C83808000000203F200000001008F9
:101090000808C83808002038262120201800000041
:1010A00000FE020202000000007F40404000000CF1
:1010B00030C000000000000000010638C00000023F
:1010C0000202FE000000004040407F0000000000DF
:1010D0000402020204000000000000000000000002
:1010E00000000000000080808080808080800002FE
:1010F00002040000000000000000000000000000EA
:101100008080808000000019242222223F2008F8DD
:10111000008080000000003F112020110E00000020
:10112000008080800000000E1120202011000000AF
:1011300000808088F800000E112020103F20000061
:10114000808080800000001F222222221300008065
:1011500080F0888888180020203F202000000000B0
:10116000808080808000006B94949493600008F8E5
:10117000008080800000203F210000203F20008070
:101180009898000000000020203F20200000000070
:1011900000809898000000C08080807F000008F8E0
:1011A000000080808000203F24022D3020000008B5
:1011B00008F8000000000020203F20200000808070
:1011C000808080808000203F20003F20003F808082
:1011D000008080800000203F210000203F20000090
:1011E000808080800000001F202020201F00808041
:1011F00000808000000080FFA12020110E00000070
:10120000008080808000000E112020A0FF80808060
:1012100080008080800020203F212000010000000D
:1012200080808080800000332424242419000080E2
:1012300080E0808000000000001F202000008080EF
:10124000000000808000001F202020103F208080B0
:1012500080000080808000010E3008060100808040
:101260000080008080800F300C030C300F00008065
:101270008000808080000020312E0E312000808090
:1012800080000080808080818E70180601000080C0
:101290008080808080000021302C222130000000DE
:1012A0000000807C020200000000003F404000007F
:1012B0000000FF00000000000000FF00000000022E
:1012C000027C800000000040403F0000000000065B
:1012D0000101020204040000000000000000000000
:1012E00001000000000000000000000000000000FD
:1012F00000000000100000000001000003000000DA
:10130000000000003400C441080763000200000030
:101310004FC30000000000000000000000000000BB
:10132000080000001800000000300000501300000A
:101330000000202050000000C80C0000A013000096
:101340005000202008010000E00C00000000000018
:10135000000000001900000000200A400002000008
:10136000000000001E00000000200A4000400000B5
:10137000000000000D00000000000A408000000096
:10138000000000000200000000000A400000001001
:10139000000000000500000000000A40000000807E
:04000005000000C136
:00000001FF
