:020000040000FA
:10000000600120206D0100007101000073010000FB
:1000100000000000000000000000000000000000E0
:10002000000000000000000000000000750100005A
:1000300000000000000000007701000079010000CE
:100040007B0100007B0100007B0100007B010000C0
:100050007B0100007B0100007B0100007B010000B0
:10006000000000007B0100007B0100000000000098
:10007000000000007B0100007B0100007B0100000C
:100080007B0100007B0100007B0100007B01000080
:100090007B0100007B010000000000000000000068
:1000A0007B0100007B010000000000000000000058
:1000B0007B010000000000007B0100007B010000CC
:1000C00000F002F800F042F812A030C808382418F6
:1000D0002D18AC4201D100F039F80FCCA246AB4646
:1000E0000CA730CF2D1B083F3F197C427F1E544484
:1000F0002D090426F441641EAC4201D300F026F819
:100100000126334200D0FB1A3343984754465D46DC
:10011000DFE70000E4010000F4010000000000003F
:100120007047000000000000002300240025002686
:10013000103A01D378C1FBD8520700D330C100D5A3
:100140000B6070471FB51FBD10B510BD00F027F83C
:100150001146FFF7F7FF00F0BDF800F03FF803B4D9
:10016000FFF7F2FF03BC00F045F800000648004727
:10017000FEE7FEE7FEE7FEE7FEE7FEE70348044989
:10018000024A044B70470000C100000060002020BC
:10019000600120206000202070477047704775463E
:1001A00000F024F8AE46050069465346C008C0007A
:1001B000854618B020B5FFF7E1FF60BCB6460026C3
:1001C0000027C0C5C0C5C0C5C0C5C0C5C0C5C0C565
:1001D000C0C5403D490849008D46704710B50446EA
:1001E000C046C0462046FFF7BAFF10BD0048704722
:1001F0000000202001491820ABBEFEE726000200C7
:100200007047811E091F00BFFCD27047B0B5084D72
:100210002868800209D4074C2046FFF7F2FF2868BF
:100220002046FFF7EEFF0120B0BD0020B0BDC04664
:1002300080330A40007102000148024901607047A2
:10024000C480424081000E001148812101600120DC
:1002500080031049086008637047C046012080038E
:100260000C4908607047C0460120800301490860BE
:100270007047C04690320A4005488121016081667E
:10028000C166816003480449016001637047C0464C
:100290007C804240A0320A400040010C80B500F052
:1002A00003F8FFF7E9FF80BD80B5064806494160C5
:1002B000064A51600649016011601020FFF7A1FF56
:1002C00080BDC04600080A40030000B100280A4073
:1002D00001000026FFF7E2FFFFF7B6FFFFF7ACFFD4
:1002E000FFF7C2FFFFF792FF0128F9D0FFF7B6FF33
:1002F000F8E70000000000000803000000002020D4
:0803000060010000280100006B
:04000005000000C136
:00000001FF
