:020000040000FA
:10000000B00120208D01000091010000930100004B
:1000100000000000000000000000000000000000E0
:10002000000000000000000000000000950100003A
:10003000000000000000000097010000990100008E
:100040002D0200009B0100009B0100009B010000AD
:100050009B0100009B0100009B0100009B01000030
:10006000000000009B0100009B0100000000000058
:10007000000000009B0100009B0100009B010000AC
:100080009B0100009B0100009B0100009B01000000
:100090009B0100009B010000000000000000000028
:1000A0009B0100009B010000000000000000000018
:1000B0009B010000000000009B0100009B0100006C
:1000C00000F002F800F052F812A030C808382418E6
:1000D0002D18AC4201D100F049F80FCCA246AB4636
:1000E0000CA730CF2D1B083F3F197C427F1E544484
:1000F0002D090426F441641EAC4201D300F036F809
:100100000126334200D0FB1A3343984754465D46DC
:10011000DFE700005C0E00007C0E00000000000025
:10012000103A02D378C878C1FAD8520701D330C840
:1001300030C101D504680C60704700000000000069
:100140007047000000000000002300240025002666
:10015000103A01D378C1FBD8520700D330C100D583
:100160000B6070471FB51FBD10B510BD00F027F81C
:100170001146FFF7F7FF00F0DDFB00F03FF803B496
:10018000FFF7F2FF03BC00F045F800000648004707
:10019000FEE7FEE7FEE7FEE7FEE7FEE70348044969
:1001A000024A044B70470000C1000000B00020204C
:1001B000B0012020B000202070477047704775467E
:1001C00000F024F8AE46050069465346C008C0005A
:1001D000854618B020B5FFF7E1FF60BCB6460026A3
:1001E0000027C0C5C0C5C0C5C0C5C0C5C0C5C0C545
:1001F000C0C5403D490849008D46704710B50446CA
:10020000C046C0462046FFF7BAFF10BD0048704701
:100210005000202001491820ABBEFEE72600020056
:100220007047811E091F00BFFCD2704710B50648F9
:100230000068012807D1054C2068000603D000F0B3
:1002400031F80120A06210BD00114040201008408C
:1002500010B54E4841688900104A114B8B504169D6
:1002600089008B50416A89008B50416B89008B500B
:10027000402400210153446CA400A3500186018452
:100280008174018281700180024640329170024681
:10029000303291702030817010BDC04604804240E1
:1002A00081000E0070B50020384906E0002B03D015
:1002B000032313740023537420300A1894682723EF
:1002C000DB01E4580D5C032D21D8D6683440C046CC
:1002D0007D442D796D00AF440114060B002C16D11E
:1002E00001240C5213E0002C11D003240C520EE018
:1002F000002C0AD05478641C5470E4B2022C02D250
:1003000005E0002C26D0002400E002240C544028F4
:100310003BD09469E358147C032CCDD8D5692B408D
:100320007C4424796400A744020F0106BEE7002B39
:10033000C2D10123BDE7002B17D0537C5B1C537443
:10034000DBB2022BB8D301E0002B12D000231374D0
:100350002030B2E75478641C5470E4B2022CD6D337
:1003600002240C5401249470D1E70223137420302A
:10037000A3E7537C5B1C5374DBB2022B9CD3022398
:10038000137401239374203097E770BD0000202080
:100390000548812101604160816007208001034997
:1003A000086008637047C0465C804240A0320A4043
:1003B000B0B5B02000F006FA102000F003FA0025D6
:1003C000284600F0FFF90024204600F029FA681CB6
:1003D00045B2002DF7D5B12000F0F4F9102000F05F
:1003E000F1F9204600F0EEF90025284600F018FA51
:1003F000601C44B2002CF7D5B22000F0E3F91020C5
:1004000000F0E0F9284600F0DDF90024204600F075
:1004100007FA681C45B2002DF7D5B32000F0D2F9D9
:10042000102000F0CFF9204600F0CCF90025284636
:1004300000F0F6F9601C44B2002CF7D5B42000F0AF
:10044000C1F9102000F0BEF9284600F0BBF90024E5
:10045000204600F0E5F9681C45B2002DF7D5B5201F
:1004600000F0B0F9102000F0ADF9204600F0AAF934
:100470000025284600F0D4F9601C44B2002CF7D5C2
:10048000B62000F09FF9102000F09CF9284600F0FB
:1004900099F90024204600F0C3F9681C45B2002DEC
:1004A000F7D5B72000F08EF9102000F08BF9204628
:1004B00000F088F9002000F0B3F9601C44B2002C71
:1004C000F8D5B0BDF0B583B0029040B2EB4D2E46EA
:1004D00010360028304600DA2846082101910160D4
:1004E00020242046FFF79DFE10272F602046FFF7AF
:1004F00098FE2F612046FFF794FE02984006304692
:1005000000D52846019901602046FFF78AFE2F603A
:100510002046FFF786FE2F612046FFF782FE0298F5
:100520008006304600D52846019901602046FFF735
:1005300078FE2F602046FFF774FE2F612046FFF7FC
:1005400070FE0298C006304600D528460199016029
:100550002046FFF766FE2F602046FFF762FE2F6100
:100560002046FFF75EFE02980007304600D5284679
:10057000019901602046FFF754FE2F602046FFF7E7
:1005800050FE2F612046FFF74CFE02984007304690
:1005900000D52846019901602046FFF742FE2F60F2
:1005A0002046FFF73EFE2F612046FFF73AFE0298F5
:1005B0008007304600D52846019901602046FFF7A4
:1005C00030FE2F602046FFF72CFE2F612046FFF7FC
:1005D00028FE0298C00700D02E46019830602046C1
:1005E000FFF71FFE2F602046FFF71BFE2F612046FE
:1005F000FFF717FE2F602046FFF713FE2F612046FE
:10060000FFF70FFE03B0F0BD70B5B348C2494160BB
:10061000C249016010252846FFF703FE2C488124BB
:1006200004604460954E18203061306435602025A8
:100630002846FFF7F6FD082030602846FFF7F1FD59
:10064000AE2000F0BFF8D52000F0BCF8802000F00C
:10065000B9F8A82000F0B6F83F2000F0B3F8D32096
:1006600000F0B0F8002000F0ADF8402000F0AAF84B
:10067000A12000F0A7F8C82000F0A4F8DA2000F0CC
:10068000A1F8122000F09EF8204600F09BF8CF2041
:1006900000F098F8D92000F095F8F12000F092F8D9
:1006A000DB2000F08FF8302000F08CF8A42000F060
:1006B00089F8A62000F086F88D2000F083F8142039
:1006C00000F080F8AF2000F07DF8FFF771FE70BDFC
:1006D00020804240F0B583B016460C4640000290A0
:1006E0007E30B02101910843C0B200F06BF8E70002
:1006F000083FF8B204091034204600F063F80825DA
:100700003D40284600F05EF8300121494618214F4F
:10071000F05D00F085F8F619707800F081F8B07897
:1007200000F07EF8F07800F07BF8307900F078F88F
:10073000707900F075F8B07900F072F8F07900F097
:100740006FF80298401E01990843C0B200F03AF8D1
:10075000204600F037F8284600F034F8307A00F0F0
:100760005FF8707A00F05CF8B07A00F059F8F07A2F
:1007700000F056F8307B00F053F8707B00F050F832
:10078000B07B00F04DF8F07B00F04AF803B0F0BD0C
:100790007809000000FEFFFFF0B581B00646107832
:1007A00000280DD014460D4600277919C9B2C2B2EF
:1007B0003046FFF78FFF7F1CF8B2205C0028F4D191
:1007C00001B0F0BDF0B581B000902C4E0827376025
:1007D00020242046FFF725FD102535602046FFF731
:1007E00020FD37612046FFF71CFD35612046FFF7ED
:1007F00018FD7820FFF766FE0020FFF763FE0098E3
:10080000FFF760FE37612046FFF70BFD356020469D
:10081000FFF707FD37602046FFF703FD01B0F0BD8D
:10082000F0B581B00090154E08273760202420468F
:10083000FFF7F7FC102535602046FFF7F2FC376123
:100840002046FFF7EEFC35612046FFF7EAFC7820F2
:10085000FFF738FE4020FFF735FE0098FFF732FE25
:1008600037612046FFF7DDFC35602046FFF7D9FCF5
:1008700037602046FFF7D5FC01B0F0BD90120A406A
:100880000948002101600948014608390A68032324
:100890009A430A60016801229143016011020268D3
:1008A0008A4302607047C04608030B4008010B40B2
:1008B00080B500F003F8FFF7E3FF80BD80B5064880
:1008C00015494160054A51601449016011601020CA
:1008D000FFF7A7FC80BDC04600080A4000280A4078
:1008E00080B50C480C4941600C4901601020FFF7AD
:1008F00098FC0B480B4901600B48012101600B4833
:100900000268802313437F229343036008480160F9
:1009100080BDC04600080840030000B10100002669
:1009200000110840610001C92810084000E400E0FF
:1009300000E100E0FFF7BCFFFFF72AFDFFF788FCAE
:10094000FFF7CEFFFFF760FE094C2046FFF769FC7A
:100950000120084D01462A46FFF71EFF01200146EF
:100960002A46FFF719FF2046FFF75BFCF6E7C04673
:10097000006A1800680F000000000000000000007E
:100980000000000000000000000000F8000000006F
:10099000000000333000000000100C06100C0600B0
:1009A000000000000000000040C07840C078400017
:1009B000043F04043F040400007088FC0830000079
:1009C000001820FF211E0000F008F000E0180000D1
:1009D00000211C031E211E0000F00888700000008A
:1009E0001E2123241927211010160E0000000000DC
:1009F0000000000000000000000000E018040200F9
:100A0000000000071820400000020418E000000069
:100A10000040201807000000404080F08040400067
:100A20000202010F01020200000000F000000000BD
:100A30000101011F01010100000000000000000091
:100A400080B0700000000000000000000000000006
:100A5000000101010101010100000000000000008F
:100A6000003030000000000000000000806018042A
:100A7000006018060100000000E010080810E00007
:100A8000000F102020100F00001010F800000000D0
:100A90000020203F20200000007008080888700017
:100AA0000030282422213000003008888848300097
:100AB0000018202020110E000000C02010F80000B7
:100AC00000070424243F240000F808888808080050
:100AD0000019212020110E0000E010888818000065
:100AE000000F112020110E0000380808C838080037
:100AF0000000003F000000000070880808887000B7
:100B0000001C222121221C0000E010080810E00037
:100B10000000312222110F00000000C0C0000000C0
:100B200000000030300000000000008000000000E5
:100B300000008060000000000000804020100800DD
:100B400000010204081020004040404040404000A6
:100B50000404040404040400000810204080000081
:100B60000020100804020100007048080808F00086
:100B70000000003036010000C030C828E810E00056
:100B80000718272423140B000000C038E0000000E1
:100B9000203C23020227382008F88888887000004B
:100BA000203F202020110E00C0300808080838001F
:100BB000071820202010080008F808080810E00096
:100BC000203F202020100F0008F88888E808100037
:100BD000203F20202320180008F88888E80810000B
:100BE000203F200003000000C03008080838000043
:100BF00007182020221E020008F808000008F80844
:100C0000203F210101213F20000808F808080000CA
:100C10000020203F2020000000000808F8080800FD
:100C2000C08080807F00000008F888C02818080075
:100C3000203F20012638200008F8080000000000AE
:100C4000203F20202020300008F8F800F8F80800A5
:100C5000203F003F003F200008F830C00008F8089F
:100C6000203F200007183F00E01008080810E000AF
:100C70000F10202020100F0008F808080808F000C6
:100C8000203F210101010000E01008080810E000E9
:100C90000F18242438504F0008F88888888870007E
:100CA000203F2000030C302000708808080838001E
:100CB0000038202121221C00180808F80808180014
:100CC0000000203F2000000008F808000008F80895
:100CD000001F202020201F000878880000C8380846
:100CE000000007380E010000F80800F80008F800BE
:100CF000033C0700073C0300081868808068180858
:100D000020302C03032C30200838C800C8380800D5
:100D10000000203F2000000010080808C838080024
:100D20002038262120201800000000FE02020200C8
:100D30000000007F40404000000C30C00000000078
:100D4000000000010638C00000020202FE000000A0
:100D5000004040407F000000000004020202040046
:100D60000000000000000000000000000000000083
:100D7000808080808080808000020204000000006B
:100D80000000000000000000000080808080000063
:100D90000019242222223F2008F800808000000051
:100DA000003F112020110E00000000808080000014
:100DB000000E112020201100000000808088F80023
:100DC000000E112020103F20000080808080000055
:100DD000001F222222221300008080F088888818B9
:100DE0000020203F202000000000808080808000C4
:100DF000006B94949493600008F800808080000059
:100E0000203F210000203F20008098980000000033
:100E10000020203F20200000000000809898000063
:100E200000C08080807F000008F800008080800083
:100E3000203F24022D302000000808F800000000A8
:100E40000020203F20200000808080808080800063
:100E5000203F20003F20003F8080008080800000F5
:100E6000203F210000203F20000080808080000083
:100E7000001F202020201F008080008080000000B4
:100E800080FFA12020110E000000008080808000E3
:100E9000000E112020A0FF808080800080808000D4
:100EA00020203F2120000100000080808080800001
:100EB0000033242424241900008080E08080000076
:100EC0000000001F202000008080000000808000C3
:100ED000001F202020103F20808080000080808024
:100EE00000010E30080601008080008000808080B4
:100EF0000F300C030C300F000080800080808000D9
:100F00000020312E0E312000808080000080808003
:100F100080818E70180601000080808080808000B3
:100F20000021302C2221300000000000807C0202D1
:100F300000000000003F404000000000FF000000F3
:100F400000000000FF0000000002027C80000000A2
:100F50000040403F000000000006010102020404BE
:100F6000000000000000000048656C6C6F0000008D
:100F7000900F000000002020500000002001000021
:100F8000E00F000050002020600100004801000038
:100F9000000000001900000000200A4000020000CC
:100FA000000000001E00000000200A400040000079
:100FB000000000000D00000000000A40800000005A
:100FC000000000000200000000000A4000000010C5
:100FD000000000000500000000000A400000008042
:04000005000000C136
:00000001FF
