:020000040000FA
:1000000060012020D5000000D9000000DB000000C6
:1000100000000000000000000000000000000000E0
:10002000000000000000000000000000DD000000F3
:100030000000000000000000DF000000E100000000
:1000400011030000E3000000E3000000E3000000F3
:10005000E3000000E3000000E3000000E300000014
:1000600000000000E3000000E300000000000000CA
:1000700000000000E3000000E30000009909000018
:10008000E3000000E3000000E3000000E3000000E4
:10009000E3000000E300000000000000000000009A
:1000A000E3000000E300000000000000000000008A
:1000B000E300000000000000E3000000E300000097
:1000C0000348854600F010F800480047B10A0000D8
:1000D0006001202003480047FEE7FEE7FEE7FEE759
:1000E000FEE7FEE7C10000001CB509480090094882
:1000F000019005460126009C05E0E36807CC3343E8
:100100000C3C98471034AC42F7D3FFF7DDFF0000FA
:10011000B40B0000D40B0000811E091F00BFFCD2ED
:1001200070470000F0B584B0012422022A4B196800
:1001300003929143196049490D686D04FCD5457ED1
:1001400025409E69A64374199C612024045D032503
:100150002C40DE69AE433419DC61204C256805264D
:100160002660466A37681F6276685E6207262E4000
:100170002660C4697F252D02DE69AE436406640CE7
:100180003419DC610768456882680092C6680269B4
:100190000192426902929A69114C14403A07120B7B
:1001A0002D03ADB2AA183243009D2D072D0D154326
:1001B000019A1543029A1543007E2843094A0240DA
:1001C000101998611868039A104318600868800530
:1001D000FCD504B0F0BDC04608010B400013404000
:1001E0008D00F0FF72FF0F00F0B5124B1D46083D69
:1001F0002E680124A6432E600326360330401F6874
:10020000B743381818601868FF26B043C9B24018C1
:10021000186028682043286018682107002A06D043
:10022000084318600D480168C905FCD5F0BD884336
:100230001860F0BD10010B4007498860074802684C
:100240009202FCD5012212040B6813430B60016873
:10025000C906FCD57047C04604010B4004020B40A0
:10026000B0B51122120283580124A34383508B7826
:100270000C881C438B882343094C1C408358094D30
:100280001D402B1983508B79CC791C43097A21436B
:100290007E231940801842689A4351184160B0BDCE
:1002A00018670000E798FDFF10B5012212038318BC
:1002B0000C789C604978815010BD0000074A801876
:1002C0000268120608D50268120605D502681206F1
:1002D00002D502681206F3D481617047081100004C
:1002E000B0B5002806D00446034D2846FFF714FF9A
:1002F000641EFAD1B0BDC0468038010010B5002898
:1003000005D004465020FFF707FF641EFAD110BD48
:1003100010B506480068012807D1054C2068000682
:1003200003D000F057F80120A06210BD001140403A
:100330002010084061498878002802D0891C0120DB
:1003400019E0887C002802D01231022013E022201C
:10035000085C002802D0223103200CE03220085C27
:10036000002802D03231042005E04220085C002839
:1003700004D04231052000220A70704700207047E7
:1003800010B54E4841688900104A114B8B504169A5
:1003900089008B50416A89008B50416B89008B50DA
:1003A000402400210153446CA400A3500186018421
:1003B0008174018281700180024640329170024650
:1003C000303291702030817010BDC04604804240B0
:1003D00081000E0070B50020384906E0002B03D0E4
:1003E000032313740023537420300A1894682723BE
:1003F000DB01E4580D5C032D21D8D6683440C0469B
:100400007D442D796D00AF440114060B002C16D1EC
:1004100001240C5213E0002C11D003240C520EE0E6
:10042000002C0AD05478641C5470E4B2022C02D21E
:1004300005E0002C26D0002400E002240C544028C3
:100440003BD09469E358147C032CCDD8D5692B405C
:100450007C4424796400A744020F0106BEE7002B08
:10046000C2D10123BDE7002B17D0537C5B1C537412
:10047000DBB2022BB8D301E0002B12D0002313749F
:100480002030B2E75478641C5470E4B2022CD6D306
:1004900002240C5401249470D1E7022313742030F9
:1004A000A3E7537C5B1C5374DBB2022B9CD3022367
:1004B000137401239374203097E770BD040020204B
:1004C00015484021016070470B484021016070478A
:1004D0001148802101607047074880210160704702
:1004E000012000020C4908607047C046012000024C
:1004F000014908607047C04690320A400548812192
:100500000160416081600720800103490860086341
:100510007047C0465C804240A0320A40B0B5B0206F
:1005200000F086F9102000F083F90025284600F03D
:100530007FF90024204600F0A9F9681C45B2002D7F
:10054000F7D5B12000F074F9102000F071F92046C1
:1005500000F06EF90025284600F098F9601C44B2BE
:10056000002CF7D5B22000F063F9102000F060F9FC
:10057000284600F05DF90024204600F087F9681C49
:1005800045B2002DF7D5B32000F052F9102000F04D
:100590004FF9204600F04CF90025284600F076F986
:1005A000601C44B2002CF7D5B42000F041F91020B3
:1005B00000F03EF9284600F03BF90024204600F008
:1005C00065F9681C45B2002DF7D5B52000F030F96B
:1005D000102000F02DF9204600F02AF900252846C9
:1005E00000F054F9601C44B2002CF7D5B62000F09E
:1005F0001FF9102000F01CF9284600F019F900241A
:10060000204600F043F9681C45B2002DF7D5B7200D
:1006100000F00EF9102000F00BF9204600F008F968
:10062000002000F033F9601C44B2002CF8D5B0BDB6
:10063000F0B583B0029040B2AB4D2E461036002884
:10064000304600DA28460821019101600124204645
:10065000FFF754FE10272F602046FFF74FFE2F6153
:100660002046FFF74BFE02984006304600D528464C
:10067000019901602046FFF741FE2F602046FFF7F9
:100680003DFE2F612046FFF739FE02988006304676
:1006900000D52846019901602046FFF72FFE2F6004
:1006A0002046FFF72BFE2F612046FFF727FE02981A
:1006B000C006304600D52846019901602046FFF764
:1006C0001DFE2F602046FFF719FE2F612046FFF721
:1006D00015FE02980007304600D5284601990160B2
:1006E0002046FFF70BFE2F602046FFF707FE2F6125
:1006F0002046FFF703FE02984007304600D5284603
:10070000019901602046FFF7F9FD2F602046FFF7B1
:10071000F5FD2F612046FFF7F1FD02988007304676
:1007200000D52846019901602046FFF7E7FD2F60BC
:100730002046FFF7E3FD2F612046FFF7DFFD02981B
:10074000C00700D02E46019830602046FFF7D6FD46
:100750002F602046FFF7D2FD2F612046FFF7CEFD28
:100760002F602046FFF7CAFD2F612046FFF7C6FD28
:1007700003B0F0BD70B52D488124046044605A4E2A
:100780001820306130641020306001252846FFF7C2
:10079000B5FD082030602846FFF7B0FDAE2000F020
:1007A00047F8D52000F044F8802000F041F8A82058
:1007B00000F03EF83F2000F03BF8D32000F038F87E
:1007C000002000F035F8402000F032F8A12000F0C1
:1007D0002FF8C82000F02CF8DA2000F029F81220B9
:1007E00000F026F8204600F023F8CF2000F020F893
:1007F000D92000F01DF8F12000F01AF8DB2000F0FD
:1008000017F8302000F014F8A42000F011F8A6200A
:1008100000F00EF88D2000F00BF8142000F008F81E
:10082000AF2000F005F8FFF779FE70BD2080424050
:10083000F0B581B000902C4E082737600124204687
:10084000FFF75CFD102535602046FFF757FD376147
:100850002046FFF753FD35612046FFF74FFD782016
:10086000FFF7E6FE0020FFF7E3FE0098FFF7E0FE4B
:1008700037612046FFF742FD35602046FFF73EFD19
:1008800037602046FFF73AFD01B0F0BDF0B581B00A
:100890000090154E0827376001242046FFF72EFDF3
:1008A000102535602046FFF729FD37612046FFF708
:1008B00025FD35612046FFF721FD7820FFF7B8FEC2
:1008C0004020FFF7B5FE0098FFF7B2FE37612046E3
:1008D000FFF714FD35602046FFF710FD3760204616
:1008E000FFF70CFD01B0F0BD90120A4080B500F09A
:1008F00001F880BD10B5094809494160094A5160B5
:10090000094B5960094C6160094901601160196027
:1009100021601020FFF700FC10BDC04600080A400F
:10092000030000B100280A40000808400088104079
:1009300001000026B0B51448002404604460134848
:1009400004600320C143124D2A46083A13680B4045
:100950001360296801229143296011022A688A43A1
:100960002A60000321462246FFF73EFC0948FFF7B4
:10097000D9FB281F016810220A4320218A43026004
:100980002046FFF759FCB0BD2880424008030B40C9
:1009900008010B40800B000005480068C0B20B281E
:1009A00005D104484168044A1170C9B2016070471A
:1009B00020901040209110405800202010B522486F
:1009C0008221016021494160384C21492046FFF7CE
:1009D0006BFC20492046FFF743FC0320C1031E485F
:1009E00002688A43026001691C4A0A4015320261AA
:1009F00041692D220A4312218A4342614268012142
:100A00000A4043688B439A1842608A02144B1C6860
:100A100014431C604A04036813430360C268202324
:100A2000134350229343C360C26802231343052239
:100A30009343C36002680A430260C803094908601F
:100A40001549086010BDC046048042408200040081
:100A5000A80B0000AA0B0000009110400000FFFF4F
:100A60002890104080E200E00748084901600848EB
:100A70000121016007480268802313437F229343CA
:100A8000036005480160704700110840610001C91A
:100A90002810084000E400E000E100E010B5044642
:100AA000C1B20248FFF70AFC204610BD008010408A
:100AB000FFF71CFFFFF73EFFFFF720FDFFF760FC8D
:100AC000FFF7D2FFFFF756FEFFF778FF7D20840087
:100AD0002046FFF705FCFFF7F7FC14A505E02846C4
:100AE00000F03EF82046FFF7FBFBFFF723FC401E1B
:100AF000042813D8784400794000874407040C0286
:100B00000A00FFF7E1FCFFF7E7FCE8E7FFF7DCFC92
:100B1000E5E7FFF7E1FCFFF7E9FCE0E7FFF7D0FCD2
:100B2000FFF7D6FCFFF7DCFCD9E7C04648656C6CE4
:100B30006F0D00000000000002E008C8121F08C18D
:100B4000002AFAD170470000704700000000000042
:100B5000002001E001C1121F002AFBD170470000F4
:100B600010B5044601E0FFF799FF2078641C0349A3
:100B70000028F8D10A20FFF791FF10BD00002020C7
:100B80000100000000000000000000000000000064
:100B90000000000010000000000100000300000041
:100BA000000000003400C4410800000018000000EC
:100BB00000300000D80B000000002020580000008A
:100BC000380B0000300C0000580020200801000005
:100BD000500B0000000000000000000000000000BA
:100BE0001900000000200A40000200000000000080
:100BF0001E00000000200A4000400000000000002D
:100C00000D00000000000A4080000000000000000D
:100C10000200000000000A40000000100000000078
:100C20000500000000000A400000008000000000F5
:04000005000000C136
:00000001FF
