:020000040000FA
:10000000B00120208D01000091010000930100004B
:1000100000000000000000000000000000000000E0
:10002000000000000000000000000000950100003A
:10003000000000000000000097010000990100008E
:100040002D0200009B0100009B0100009B010000AD
:100050009B0100009B0100009B0100009B01000030
:10006000000000009B0100009B0100000000000058
:10007000000000009B0100009B0100009B010000AC
:100080009B0100009B0100009B0100009B01000000
:100090009B0100009B010000000000000000000028
:1000A0009B0100009B010000000000000000000018
:1000B0009B010000000000009B0100009B0100006C
:1000C00000F002F800F052F812A030C808382418E6
:1000D0002D18AC4201D100F049F80FCCA246AB4636
:1000E0000CA730CF2D1B083F3F197C427F1E544484
:1000F0002D090426F441641EAC4201D300F036F809
:100100000126334200D0FB1A3343984754465D46DC
:10011000DFE7000034040000540400000000000089
:10012000103A02D378C878C1FAD8520701D330C840
:1001300030C101D504680C60704700000000000069
:100140007047000000000000002300240025002666
:10015000103A01D378C1FBD8520700D330C100D583
:100160000B6070471FB51FBD10B510BD00F027F81C
:100170001146FFF7F7FF00F0B1F900F03FF803B4C4
:10018000FFF7F2FF03BC00F045F800000648004707
:10019000FEE7FEE7FEE7FEE7FEE7FEE70348044969
:1001A000024A044B70470000C1000000B00020204C
:1001B000B0012020B000202070477047704775467E
:1001C00000F024F8AE46050069465346C008C0005A
:1001D000854618B020B5FFF7E1FF60BCB6460026A3
:1001E0000027C0C5C0C5C0C5C0C5C0C5C0C5C0C545
:1001F000C0C5403D490849008D46704710B50446CA
:10020000C046C0462046FFF7BAFF10BD0048704701
:100210005000202001491820ABBEFEE72600020056
:100220007047811E091F00BFFCD2704710B50648F9
:100230000068012807D1054C2068000603D000F0B3
:1002400057F80120A06210BD001140402010084066
:1002500061498878002802D0891C012019E0887C37
:10026000002802D01231022013E02220085C00286E
:1002700002D0223103200CE03220085C002802D09A
:100280003231042005E04220085C002804D04231CD
:10029000052000220A7070470020704710B54E48B4
:1002A00041688900104A114B8B50416989008B507D
:1002B000416A89008B50416B89008B50402400219A
:1002C0000153446CA400A35001860184817401820F
:1002D0008170018002464032917002463032917046
:1002E0002030817010BDC0460480424081000E0065
:1002F00070B50020384906E0002B03D003231374A7
:100300000023537420300A1894682723DB01E45833
:100310000D5C032D21D8D6683440C0467D442D792C
:100320006D00AF440114060B002C16D101240C52B1
:1003300013E0002C11D003240C520EE0002C0AD044
:100340005478641C5470E4B2022C02D205E0002CF4
:1003500026D0002400E002240C5440283BD09469AD
:10036000E358147C032CCDD8D5692B407C442479E8
:100370006400A744020F0106BEE7002BC2D101238F
:10038000BDE7002B17D0537C5B1C5374DBB2022BF0
:10039000B8D301E0002B12D0002313742030B2E751
:1003A0005478641C5470E4B2022CD6D302240C544A
:1003B00001249470D1E7022313742030A3E7537C07
:1003C0005B1C5374DBB2022B9CD3022313740123F6
:1003D0009374203097E770BD00002020154840211D
:1003E000016070470B48402101607047114880212F
:1003F00001607047074880210160704701200002BA
:100400000C4908607047C04601200002014908609D
:100410007047C04690320A40054881210160416022
:100420008160072080010349086008637047C04667
:100430005C804240A0320A4009480021016009481E
:10044000014608390A6803239A430A6001680122B9
:1004500091430160110202688A4302607047C046FE
:1004600008030B4008010B4080B500F003F8FFF7CC
:10047000E3FF80BD80B5074807494160074A5160E6
:10048000074B596007490160116019601020FFF7A0
:10049000C8FE80BD00080A40030000B100280A40E1
:1004A0000008084001000026074808490160084884
:1004B0000121016007480268802313437F22934390
:1004C000036005480160704700110840610001C9E0
:1004D0002810084000E400E000E100E0FFF7C4FF5E
:1004E000FFF79AFFFFF7DAFEFFF7DEFF154C204615
:1004F000FFF797FEFFF7ACFE401E04281AD8C0464F
:10050000784400794000874407120A0D0200FFF783
:1005100071FFFFF779FFEAE7FFF764FFE7E7FFF70F
:1005200073FFE4E7FFF75EFFFFF764FFDFE7FFF726
:1005300061FFDCE7FFF752FFFFF758FFFFF75EFFB1
:10054000D5E7C046006A18006805000000002020BA
:100550005000000020010000B805000050002020DD
:1005600060010000480100000000000019000000C8
:1005700000200A4000020000000000001E000000F1
:1005800000200A4000400000000000000D000000B4
:1005900000000A408000000000000000020000008F
:1005A00000000A40000000100000000005000000EC
:0805B00000000A400000008079
:04000005000000C136
:00000001FF
