:020000040000FA
:1000000000022020D5000000D9000000DB00000025
:1000100000000000000000000000000000000000E0
:10002000000000000000000000000000DD000000F3
:100030000000000000000000DF000000E100000000
:100040002D080000E3000000E3000000E3000000D2
:10005000E300000011020000E3000000E3000000E4
:1000600000000000E3000000E300000000000000CA
:1000700000000000E3000000E30000004511000064
:10008000E3000000E3000000D9100000E3000000DE
:10009000E3000000E300000000000000000000009A
:1000A000E3000000E300000000000000000000008A
:1000B000E300000000000000E3000000E300000097
:1000C0000348854600F030F80048004785120000DC
:1000D0000002202003480047FEE7FEE7FEE7FEE7B8
:1000E000FEE7FEE7C100000070B50446002903D01A
:1000F00000202022012310E0002801D00020C0436E
:10010000C046C0460DE02546D5408D4205D30D467C
:100110009540641B1D46954040191546521E002D02
:10012000F1DC214670BD00001CB50948009009486B
:10013000019005460126009C05E0E36807CC3343A7
:100140000C3C98471034AC42F7D3FFF7BDFF0000DA
:100150001C1B00003C1B0000B0B52348234900F0E5
:10016000ADF823490B1F1868224A024001204404BD
:1001700012191A600A68204C14400C600404E21D35
:100180001E4D2A600A46083A1568254315607724F3
:1001900024061D68A5430924A4062C191C6002230B
:1001A000CB6003020C681C430C601F24E4020D6842
:1001B000A543C4022C190C60114C216E1943216611
:1001C000236A20210B43236223680B4323601368B7
:1001D000034313600B480C4A02600C480160284836
:1001E00000210170B0BDC04600200040A81A0000E8
:1001F00008310040FEFFECFFF8FFE0E080310040F6
:100200002830004004B242408082554000E100E0C6
:1002100004480068C0B2062802D1194801210170C3
:100220007047C046203000401248016802229143C6
:100230000160114981604021C16001681143016082
:10024000012000020D494A6802434A600A680243DD
:100250000A600B480178002908D10178002905D1EE
:100260000178002902D101780029F3D00021017022
:100270007047C04600B24240780020200431004060
:10028000F800202002490140024801607047C04642
:10029000FF0F00000092014080B50548054900F0BD
:1002A00033F80548016801220A43026080BDC04658
:1002B00000800140B01A000000910140B0B50A78FA
:1002C000032313400B4A84580B4D2540EB18A924F7
:1002D00024061B198350072212064B681340112471
:1002E000240205599543EA18025100194978016121
:1002F000B0BDC04608080000FCFFFF00811E091FBA
:1003000000BFFCD27047000070B58A6811231B0241
:10031000C458184D25408C881443174A224052195E
:10032000C250C2180B681469144D25408C891C43B7
:100330008B7B2343124C1C40631913610B694C697E
:100340008922520185580F4E2E40CD7B1D432543F7
:100350000B8B2B430C4C1C40A31983508B7E898B39
:1003600019430A4B0B4080180169094A0A40D11809
:10037000016170BDFFFEFEFF00010100FCFCFFFEFD
:1003800003030001FEFCFCFE01030301010F00005A
:10039000FEF0FFFFB0B5536894681C439389234374
:1003A000146955691C43D3892B431B0123430C015A
:1003B000041909256D026351137852781A43BF233B
:1003C0001A4089004018034944589C43A2184250DF
:1003D000B0BDC04610110000F0B584B00124220267
:1003E0002A4B196803929143196049490D686D04BD
:1003F000FCD5457E25409E69A64374199C61202446
:10040000045D03252C40DE69AE433419DC61204CC9
:10041000256805262660466A37681F6276685E6230
:1004200007262E402660C4697F252D02DE69AE4373
:100430006406640C3419DC610768456882680092C0
:10044000C66802690192426902929A69114C14408D
:100450003A07120B2D03ADB2AA183243009D2D07A7
:100460002D0D1543019A1543029A1543007E28432A
:10047000094A0240101998611868039A10431860DD
:1004800008688005FCD504B0F0BDC04608010B40EB
:10049000001340408D00F0FF72FF0F00F0B5124BCB
:1004A0001D46083D2E680124A6432E600326360310
:1004B00030401F68B743381818601868FF26B043EB
:1004C000C9B24018186028682043286018682107BE
:1004D000002A06D0084318600D480168C905FCD5FC
:1004E000F0BD88431860F0BD10010B4007498860DB
:1004F000074802689202FCD5012212040B681343DC
:100500000B600168C906FCD57047C04604010B406A
:1005100004020B40F0B582B07B4E844A8518894AAC
:10052000821801923B4A83180A794C793A4F002C81
:1005300026D0202A04D00524E401002A03D003E0B9
:10054000364C002A00D188249E683E4026439E6097
:10055000DE683E402643DE60AC686D4E3440AC60E1
:10056000EC683440EC600024019EB460F4608F2499
:10057000E4439E6926409E61DE692640DE61624E4C
:1005800080198E790C68202A009208D0191D002A43
:1005900015D1641E44601A683A40882415E0611E33
:1005A0004160196839401D4A114319605968394042
:1005B0001143596001214C07194F014607E06208B9
:1005C00042601A683A400524E40122431A600A682E
:1005D0003A4022430A6029684D4A114029606968FF
:1005E000114069600021019A116051608F21C94357
:1005F0001A690A401A615A690A405A6100990E4301
:10060000BD2131400268074B1340C918891C0160A5
:1006100002B0F0BD7018000024493E000104000043
:10062000FFFFFFCF4000FFCF70B5374A82184B68FD
:1006300053603E4BC3180878222857D8840001A580
:100640002C59A746E3060000ED060000E306000073
:10065000ED060000ED060000ED060000ED060000CE
:10066000ED060000ED060000ED060000ED060000BE
:10067000ED060000ED060000ED060000ED060000AE
:10068000ED060000D1060000ED060000D1060000D6
:10069000ED060000ED060000ED060000ED0600008E
:1006A000ED060000ED060000ED060000ED0600007E
:1006B000ED060000ED060000ED060000ED0600006E
:1006C000ED060000D1060000ED060000D106000096
:1006D000032424071568A543012464072C1914601A
:1006E00004E0032424071568A54315600C69D46051
:1006F000CC68064D25401C68054E264074191C60C8
:10070000097A0143116070BD041800007777020078
:100710008888FDFF10B507239B04194092008018BC
:10072000024A84589C436118815010BD3018000063
:1007300010B5029CA400001911431943014A8150CD
:1007400010BDC0465018000092008018014A815028
:100750007047C0461018000010B50122120383181C
:100760000C789C604B7883508978014A815010BD89
:100770000C110000B0B51122120283580124A343CA
:1007800083508B780C881C438B882343094C1C4076
:100790008358094D1D402B1983508B79CC791C430C
:1007A000097A21437E231940801842689A435118E0
:1007B0004160B0BD18670000E798FDFF10B5012249
:1007C000120383180C789C604978815010BD00009A
:1007D000074A80180268120608D50268120605D575
:1007E0000268120602D502681206F3D481617047CE
:1007F0000811000080B500F0A9FB80BDB0B500284D
:1008000006D00446034D2846FFF778FD641EFAD152
:10081000B0BDC0468038010010B5002805D00446A0
:100820005020FFF76BFD641EFAD110BD10B50648CD
:100830000068012807D1054C2068000603D000F0AD
:1008400031F80120A06210BD001140402010084086
:1008500010B54E4841688900104A114B8B504169D0
:1008600089008B50416A89008B50416B89008B5005
:10087000402400210153446CA400A350018601844C
:10088000817401828170018002464032917002467B
:10089000303291702030817010BDC04604804240DB
:1008A00081000E0070B50020384906E0002B03D00F
:1008B000032313740023537420300A1894682723E9
:1008C000DB01E4580D5C032D21D8D6683440C046C6
:1008D0007D442D796D00AF440114060B002C16D118
:1008E00001240C5213E0002C11D003240C520EE012
:1008F000002C0AD05478641C5470E4B2022C02D24A
:1009000005E0002C26D0002400E002240C544028EE
:100910003BD09469E358147C032CCDD8D5692B4087
:100920007C4424796400A744020F0106BEE7002B33
:10093000C2D10123BDE7002B17D0537C5B1C53743D
:10094000DBB2022BB8D301E0002B12D000231374CA
:100950002030B2E75478641C5470E4B2022CD6D331
:1009600002240C5401249470D1E702231374203024
:10097000A3E7537C5B1C5374DBB2022B9CD3022392
:10098000137401239374203097E770BD0400202076
:100990000148402101607047B0320A40054881217A
:1009A000016041608160072080010349086008639D
:1009B0007047C0465C804240A0320A40B0B5B020CB
:1009C00000F0FEF9102000F0FBF90025284600F0A9
:1009D000F7F90024204600F021FA681C45B2002DEA
:1009E000F7D5B12000F0ECF9102000F0E9F920462D
:1009F00000F0E6F90025284600F010FA601C44B229
:100A0000002CF7D5B22000F0DBF9102000F0D8F967
:100A1000284600F0D5F90024204600F0FFF9681CB4
:100A200045B2002DF7D5B32000F0CAF9102000F030
:100A3000C7F9204600F0C4F90025284600F0EEF979
:100A4000601C44B2002CF7D5B42000F0B9F9102096
:100A500000F0B6F9284600F0B3F90024204600F073
:100A6000DDF9681C45B2002DF7D5B52000F0A8F9D6
:100A7000102000F0A5F9204600F0A2F90025284634
:100A800000F0CCF9601C44B2002CF7D5B62000F081
:100A900097F9102000F094F9284600F091F900240D
:100AA000204600F0BBF9681C45B2002DF7D5B720F1
:100AB00000F086F9102000F083F9204600F080F95C
:100AC000002000F0ABF9601C44B2002CF8D5B0BD9A
:100AD000F0B583B0029040B2E74D2E4610360028A4
:100AE000304600DA284608210191016001242046A1
:100AF000FFF792FE10272F602046FFF78DFE2F6133
:100B00002046FFF789FE02984006304600D5284669
:100B1000019901602046FFF77FFE2F602046FFF716
:100B20007BFE2F612046FFF777FE02988006304655
:100B300000D52846019901602046FFF76DFE2F6021
:100B40002046FFF769FE2F612046FFF765FE0298F9
:100B5000C006304600D52846019901602046FFF7BF
:100B60005BFE2F602046FFF757FE2F612046FFF700
:100B700053FE02980007304600D5284601990160CF
:100B80002046FFF749FE2F602046FFF745FE2F6104
:100B90002046FFF741FE02984007304600D5284620
:100BA000019901602046FFF737FE2F602046FFF7CE
:100BB00033FE2F612046FFF72FFE02988007304654
:100BC00000D52846019901602046FFF725FE2F60D9
:100BD0002046FFF721FE2F612046FFF71DFE0298F9
:100BE000C00700D02E46019830602046FFF714FE63
:100BF0002F602046FFF710FE2F612046FFF70CFE06
:100C00002F602046FFF708FE2F612046FFF704FE05
:100C100003B0F0BD70B52D48812404604460964E49
:100C20001820306130641020306001252846FFF71D
:100C3000F3FD082030602846FFF7EEFDAE2000F0FF
:100C4000BFF8D52000F0BCF8802000F0B9F8A8204B
:100C500000F0B6F83F2000F0B3F8D32000F0B0F871
:100C6000002000F0ADF8402000F0AAF8A12000F02C
:100C7000A7F8C82000F0A4F8DA2000F0A1F81220AC
:100C800000F09EF8204600F09BF8CF2000F098F886
:100C9000D92000F095F8F12000F092F8DB2000F068
:100CA0008FF8302000F08CF8A42000F089F8A620FE
:100CB00000F086F88D2000F083F8142000F080F812
:100CC000AF2000F07DF8FFF779FE70BD2080424034
:100CD000F0B583B016460C46400002907E30B0213D
:100CE00001910843C0B200F06BF8E700083FF8B28A
:100CF00004091034204600F063F808253D402846DA
:100D000000F05EF8300121494618214FF05D00F0F7
:100D100085F8F619707800F081F8B07800F07EF868
:100D2000F07800F07BF8307900F078F8707900F016
:100D300075F8B07900F072F8F07900F06FF8029869
:100D4000401E01990843C0B200F03AF8204600F076
:100D500037F8284600F034F8307A00F05FF8707AFF
:100D600000F05CF8B07A00F059F8F07A00F056F82C
:100D7000307B00F053F8707B00F050F8B07B00F04F
:100D80004DF8F07B00F04AF803B0F0BDB814000055
:100D900000FEFFFFF0B581B00646107800280DD0A8
:100DA00014460D4600277919C9B2C2B23046FFF782
:100DB0008FFF7F1CF8B2205C0028F4D101B0F0BD99
:100DC000F0B581B000902C4E0827376001242046F2
:100DD000FFF722FD102535602046FFF71DFD376126
:100DE0002046FFF719FD35612046FFF715FD7820F5
:100DF000FFF76EFE0020FFF76BFE0098FFF768FE1E
:100E000037612046FFF708FD35602046FFF704FDF7
:100E100037602046FFF700FD01B0F0BDF0B581B0AE
:100E20000090154E0827376001242046FFF7F4FC98
:100E3000102535602046FFF7EFFC37612046FFF7AD
:100E4000EBFC35612046FFF7E7FC7820FFF740FE1A
:100E50004020FFF73DFE0098FFF73AFE376120463D
:100E6000FFF7DAFC35602046FFF7D6FC37602046F6
:100E7000FFF7D2FC01B0F0BD90120A4080B56421AA
:100E80000A1A2E4800685043FFF72EF901462948F8
:100E90000022FFF759FC80BDF0B583B002910646F1
:100EA0002148842101600127380320490860204936
:100EB0008C784D781F48FFF74FFC691C1E48FFF7E0
:100EC00013F9611CFFF710F93146FFF70DF94508DA
:100ED0001A490D60174C2046FFF71CFB184A106892
:100EE00018490140116000260096204631463246DE
:100EF0003346FFF71DFC204631463246FFF70AFC19
:100F000064210298081A6843FFF7EEF8014620466C
:100F10003246FFF719FC0C488760076008490868EB
:100F20003843086003B0F0BD88804240D0120A40C8
:100F3000540020200040084000B4C4045800202081
:100F4000045808407F00FFFF0051084080B5034867
:100F50000021034AFFF71EFA80BDC04600A04240B0
:100F6000D01A0000F0B581B01248134A426013480D
:100F7000426013484260134C6260134D6A60134E26
:100F80007260134F7A6013494A6013484260134AF3
:100F9000084B1A60094B1A60094B1A6022602A60DC
:100FA00032603A600A6002605020FFF7A7F901B092
:100FB000F0BDC04600080A40030000B100280A4006
:100FC000000886400048084000080840008810409B
:100FD0000028004000080040008801400100002671
:100FE000F0B581B0224800240460446021480460C8
:100FF0000F200002204D29688143012256028819E2
:1010000028600320C1432B1F1F680F401F606968C1
:101010009143696011026B688B436B60000364212C
:10102000FFF73CFA1548FFF7D7F928681021084365
:10103000202290432860A86B0843A863686BB043E4
:1010400068632046FFF752FA0D480E490A680240CD
:1010500082420BD00A680240824207D00A680240EE
:10106000824203D00A6802408242EFD101B0F0BD53
:101070002880424008030B4004010B40E81A00009E
:10108000000B200004020B4080B5FFF76BFFFFF759
:10109000A7FFFFF783FCFFF7DBFB7D208000142117
:1010A000FFF7FAFE072063210A4A00F021F84B20DF
:1010B000C00100F059F8FFF74FF8FFF79BFBFFF76F
:1010C000EBF800F0BBF8FFF7A5FDC820FFF796FB93
:1010D00080BDC0464FC3000080B504480068C0B260
:1010E000012801D1FFF754FC80BDC0462010864086
:1010F000B0B50E4B997058700D4C62600D4D28467E
:101100001946FFF729FB28462146FFF78DFA0A48C2
:1011100001680122114301600848026090045349AC
:1011200008600748016811430160B0BD60002020DD
:101130006400202000008640281086400811864068
:101140000418864005480068C0B20B2805D1044841
:101150004168044A1170C9B2016070472090104084
:1011600020911040F9002020F0B581B004462A48B3
:101170008221016029494160414D29492846FFF7F4
:101180001DFB28492846FFF7F5FA0320C003264F28
:101190003968814339602501244E30462946FEF7DF
:1011A000A3FF3969224A0A4081B251183961454387
:1011B000701B8001610840182146FEF795FF3F2112
:1011C00008407A698A4310187861796801200140E3
:1011D0007A688243511879608102164A13680B437A
:1011E000136041043A680A433A60F96820220A43CE
:1011F00050218A43FA60F96802220A4305218A4392
:10120000FA60396801433960C0030B490860174927
:10121000086001B0F0BDC046048042408200040076
:10122000101B0000121B000000911040005A6202C7
:101230000000FFFF2890104080E200E007480849C6
:1012400001600848012101600748026880231343B8
:101250007F229343036005480160704700110840F6
:10126000610001C92810084000E400E000E100E04E
:1012700010B50446C1B20248FFF7AAFA204610BDD5
:1012800000801040FFF700FF012010A20146FFF789
:1012900081FD4620FFF7F2FD0F48FEF7F3FF144CE7
:1012A00014A50EA000F0F8F8FEF7BEFF00262746B2
:1012B0003A882846314600F023F8BF1C761C402EA1
:1012C000F6D17D208000FFF799FAEAE748656C6C5B
:1012D0006F20576F726C6400B80B0000537461721A
:1012E0007420414420436F6E76657274210D0000B6
:1012F0007800202025642069732025640D0A0000F1
:101300000FB410B503A9044B044A029800F01CF86E
:1013100010BC08BC04B01847711200000000202067
:1013200002E008C8121F08C1002AFAD17047000065
:101330007047000000000000002001E001C1121F02
:10134000002AFBD170470000FFB58DB00446002590
:1013500006E025280AD0109A0F999047641C6D1C4E
:1013600020780028F5D1284611B0F0BD00270121D2
:10137000484A009700E00743641C23780846203B56
:1013800098401042F7D120782E2817D10420074327
:101390006078641C2A280CD10E98641C02C8009145
:1013A0000E900BE000990A22514330394018641C1A
:1013B00000902078014630390929F3D92078002897
:1013C000D1D0642808D0692806D075281ED0109A7C
:1013D0000F9990476D1C5BE00A200E99019001C99E
:1013E0000E91002802DA40422D2102E0390504D591
:1013F0002B216A461172012103E0F90704D0202154
:10140000F7E70BAE0B910DE00021FAE70A200E99E9
:10141000019001C90E91F7E70199FEF765FE3031A1
:10142000761E31700028F7D103A8801B2030019070
:10143000780701D5009801E00120009001998842C9
:1014400001DD401A00E000200027009006E002A81D
:10145000109AC05D0F9990476D1C7F1C0B988742B6
:10146000F5DB04E0109A30200F9990476D1C00992D
:10147000481E00900029F5DC05E03078109A761CB3
:101480000F9990476D1C0199481E01900029F4DCCA
:10149000641C65E70928010010B5044601E0FFF768
:1014A000E7FE2078641C03490028F8D10A20FFF7E2
:1014B000DFFE10BD00002020000000000000000042
:1014C0000000000000000000000000F80000000024
:1014D000000000333000000000100C06100C060065
:1014E000000000000000000040C07840C0784000CC
:1014F000043F04043F040400007088FC083000002E
:10150000001820FF211E0000F008F000E018000085
:1015100000211C031E211E0000F00888700000003E
:101520001E2123241927211010160E000000000090
:101530000000000000000000000000E018040200AD
:10154000000000071820400000020418E00000001E
:101550000040201807000000404080F0804040001C
:101560000202010F01020200000000F00000000072
:101570000101011F01010100000000000000000046
:1015800080B07000000000000000000000000000BB
:101590000001010101010101000000000000000044
:1015A00000303000000000000000000080601804DF
:1015B000006018060100000000E010080810E000BC
:1015C000000F102020100F00001010F80000000085
:1015D0000020203F202000000070080808887000CC
:1015E000003028242221300000300888884830004C
:1015F0000018202020110E000000C02010F800006C
:1016000000070424243F240000F808888808080004
:101610000019212020110E0000E010888818000019
:10162000000F112020110E0000380808C8380800EB
:101630000000003F0000000000708808088870006B
:10164000001C222121221C0000E010080810E000EC
:101650000000312222110F00000000C0C000000075
:10166000000000303000000000000080000000009A
:101670000000806000000000000080402010080092
:10168000000102040810200040404040404040005B
:101690000404040404040400000810204080000036
:1016A0000020100804020100007048080808F0003B
:1016B0000000003036010000C030C828E810E0000B
:1016C0000718272423140B000000C038E000000096
:1016D000203C23020227382008F888888870000000
:1016E000203F202020110E00C030080808083800D4
:1016F000071820202010080008F808080810E0004B
:10170000203F202020100F0008F88888E8081000EB
:10171000203F20202320180008F88888E8081000BF
:10172000203F200003000000C030080808380000F7
:1017300007182020221E020008F808000008F808F8
:10174000203F210101213F20000808F8080800007F
:101750000020203F2020000000000808F8080800B2
:10176000C08080807F00000008F888C0281808002A
:10177000203F20012638200008F808000000000063
:10178000203F20202020300008F8F800F8F808005A
:10179000203F003F003F200008F830C00008F80854
:1017A000203F200007183F00E01008080810E00064
:1017B0000F10202020100F0008F808080808F0007B
:1017C000203F210101010000E01008080810E0009E
:1017D0000F18242438504F0008F888888888700033
:1017E000203F2000030C30200070880808083800D3
:1017F0000038202121221C00180808F808081800C9
:101800000000203F2000000008F808000008F80849
:10181000001F202020201F000878880000C83808FA
:10182000000007380E010000F80800F80008F80072
:10183000033C0700073C030008186880806818080C
:1018400020302C03032C30200838C800C83808008A
:101850000000203F2000000010080808C8380800D9
:101860002038262120201800000000FE020202007D
:101870000000007F40404000000C30C0000000002D
:10188000000000010638C00000020202FE00000055
:10189000004040407F0000000000040202020400FB
:1018A0000000000000000000000000000000000038
:1018B0008080808080808080000202040000000020
:1018C0000000000000000000000080808080000018
:1018D0000019242222223F2008F800808000000006
:1018E000003F112020110E000000008080800000C9
:1018F000000E112020201100000000808088F800D8
:10190000000E112020103F20000080808080000009
:10191000001F222222221300008080F0888888186D
:101920000020203F20200000000080808080800078
:10193000006B94949493600008F80080808000000D
:10194000203F210000203F200080989800000000E8
:101950000020203F20200000000000809898000018
:1019600000C08080807F000008F800008080800038
:10197000203F24022D302000000808F8000000005D
:101980000020203F20200000808080808080800018
:10199000203F20003F20003F8080008080800000AA
:1019A000203F210000203F20000080808080000038
:1019B000001F202020201F00808000808000000069
:1019C00080FFA12020110E00000000808080800098
:1019D000000E112020A0FF80808080008080800089
:1019E00020203F21200001000000808080808000B6
:1019F0000033242424241900008080E0808000002B
:101A00000000001F20200000808000000080800077
:101A1000001F202020103F208080800000808080D8
:101A200000010E3008060100808000800080808068
:101A30000F300C030C300F0000808000808080008D
:101A40000020312E0E3120008080800000808080B8
:101A500080818E7018060100008080808080800068
:101A60000021302C2221300000000000807C020286
:101A700000000000003F404000000000FF000000A8
:101A800000000000FF0000000002027C8000000057
:101A90000040403F00000000000601010202040473
:101AA0000000000000000000010500000000000030
:101AB0000000000100010000000000000002010120
:101AC0000000000000000000000001000005000010
:101AD00018000000000000200000000000010001CC
:101AE00000000000000003000100000000000000F2
:101AF00000000000000000000000000010000000D6
:101B00000001000003000000000000003400C44198
:101B1000080000001800000000300000401B00001A
:101B2000000020207800000020130000B81B0000F7
:101B30007800202088010000381300000000000019
:101B400000000000000000001900000000200A4012
:101B500000020000000000001E00000000200A40FB
:101B600000400000000000000D00000000000A40DE
:101B700080000000000000000200000000000A4099
:101B800000000010000000000500000000000A40F6
:101B90000000008008076300E80300000000000068
:101BA00008076300020000004FC3000000000000AF
:081BB00000000000000000002D
:04000005000000C136
:00000001FF
